{
  "contractName": "IATIOrganisations",
  "abi": [
    {
      "inputs": [],
      "payable": false,
      "stateMutability": "nonpayable",
      "type": "constructor"
    },
    {
      "anonymous": false,
      "inputs": [
        {
          "indexed": false,
          "name": "_reference",
          "type": "string"
        },
        {
          "indexed": false,
          "name": "_name",
          "type": "string"
        },
        {
          "indexed": false,
          "name": "_type",
          "type": "string"
        }
      ],
      "name": "OrganisationSet",
      "type": "event"
    },
    {
      "constant": false,
      "inputs": [
        {
          "name": "_reference",
          "type": "string"
        },
        {
          "name": "_name",
          "type": "string"
        },
        {
          "name": "_type",
          "type": "string"
        }
      ],
      "name": "setOrganisation",
      "outputs": [],
      "payable": false,
      "stateMutability": "nonpayable",
      "type": "function"
    },
    {
      "constant": true,
      "inputs": [
        {
          "name": "_reference",
          "type": "string"
        }
      ],
      "name": "getOrganisationExists",
      "outputs": [
        {
          "name": "",
          "type": "bool"
        }
      ],
      "payable": false,
      "stateMutability": "view",
      "type": "function"
    },
    {
      "constant": true,
      "inputs": [],
      "name": "getNumOrganisations",
      "outputs": [
        {
          "name": "",
          "type": "uint256"
        }
      ],
      "payable": false,
      "stateMutability": "view",
      "type": "function"
    },
    {
      "constant": true,
      "inputs": [
        {
          "name": "_index",
          "type": "uint256"
        }
      ],
      "name": "getOrganisationReference",
      "outputs": [
        {
          "name": "",
          "type": "string"
        }
      ],
      "payable": false,
      "stateMutability": "view",
      "type": "function"
    },
    {
      "constant": true,
      "inputs": [
        {
          "name": "_reference",
          "type": "string"
        }
      ],
      "name": "getOrganisationName",
      "outputs": [
        {
          "name": "",
          "type": "string"
        }
      ],
      "payable": false,
      "stateMutability": "view",
      "type": "function"
    },
    {
      "constant": true,
      "inputs": [
        {
          "name": "_reference",
          "type": "string"
        }
      ],
      "name": "getOrganisationType",
      "outputs": [
        {
          "name": "",
          "type": "string"
        }
      ],
      "payable": false,
      "stateMutability": "view",
      "type": "function"
    }
  ],
  "bytecode": "0x608060405234801561001057600080fd5b50610c2a806100206000396000f300608060405260043610610078576000357c0100000000000000000000000000000000000000000000000000000000900463ffffffff1680632619c8c71461007d578063598eddb4146101725780638173dfc6146101f3578063cf03328714610299578063dd5d006a1461037b578063f8ef9e4b1461045d575b600080fd5b34801561008957600080fd5b50610170600480360381019080803590602001908201803590602001908080601f0160208091040260200160405190810160405280939291908181526020018383808284378201915050505050509192919290803590602001908201803590602001908080601f0160208091040260200160405190810160405280939291908181526020018383808284378201915050505050509192919290803590602001908201803590602001908080601f0160208091040260200160405190810160405280939291908181526020018383808284378201915050505050509192919290505050610488565b005b34801561017e57600080fd5b506101d9600480360381019080803590602001908201803590602001908080601f0160208091040260200160405190810160405280939291908181526020018383808284378201915050505050509192919290505050610748565b604051808215151515815260200191505060405180910390f35b3480156101ff57600080fd5b5061021e60048036038101908080359060200190929190505050610872565b6040518080602001828103825283818151815260200191508051906020019080838360005b8381101561025e578082015181840152602081019050610243565b50505050905090810190601f16801561028b5780820380516001836020036101000a031916815260200191505b509250505060405180910390f35b3480156102a557600080fd5b50610300600480360381019080803590602001908201803590602001908080601f016020809104026020016040519081016040528093929190818152602001838380828437820191505050505050919291929050505061092d565b6040518080602001828103825283818151815260200191508051906020019080838360005b83811015610340578082015181840152602081019050610325565b50505050905090810190601f16801561036d5780820380516001836020036101000a031916815260200191505b509250505060405180910390f35b34801561038757600080fd5b506103e2600480360381019080803590602001908201803590602001908080601f0160208091040260200160405190810160405280939291908181526020018383808284378201915050505050509192919290505050610a3d565b6040518080602001828103825283818151815260200191508051906020019080838360005b83811015610422578082015181840152602081019050610407565b50505050905090810190601f16801561044f5780820380516001836020036101000a031916815260200191505b509250505060405180910390f35b34801561046957600080fd5b50610472610b4d565b6040518082815260200191505060405180910390f35b816001846040518082805190602001908083835b6020831015156104c1578051825260208201915060208101905060208303925061049c565b6001836020036101000a0380198251168184511680821785525050505050509050019150509081526020016040518091039020600001908051906020019061050a929190610b59565b50806001846040518082805190602001908083835b602083101515610544578051825260208201915060208101905060208303925061051f565b6001836020036101000a0380198251168184511680821785525050505050509050019150509081526020016040518091039020600101908051906020019061058d929190610b59565b5060008390806001815401808255809150509060018203906000526020600020016000909192909190915090805190602001906105cb929190610b59565b50507f861e41a14d8a2b1333c038ea9432b82ea85b2207f92756ee6ebe0506b975222e83838360405180806020018060200180602001848103845287818151815260200191508051906020019080838360005b8381101561063957808201518184015260208101905061061e565b50505050905090810190601f1680156106665780820380516001836020036101000a031916815260200191505b50848103835286818151815260200191508051906020019080838360005b8381101561069f578082015181840152602081019050610684565b50505050905090810190601f1680156106cc5780820380516001836020036101000a031916815260200191505b50848103825285818151815260200191508051906020019080838360005b838110156107055780820151818401526020810190506106ea565b50505050905090810190601f1680156107325780820380516001836020036101000a031916815260200191505b50965050505050505060405180910390a1505050565b60008073__Strings_______________________________63e11809c58460006040518363ffffffff167c01000000000000000000000000000000000000000000000000000000000281526004018080602001838152602001828103825284818151815260200191508051906020019080838360005b838110156107d95780820151818401526020810190506107be565b50505050905090810190601f1680156108065780820380516001836020036101000a031916815260200191505b50935050505060206040518083038186803b15801561082457600080fd5b505af4158015610838573d6000803e3d6000fd5b505050506040513d602081101561084e57600080fd5b81019080805190602001909291905050509050600080549050811415915050919050565b606060008281548110151561088357fe5b906000526020600020018054600181600116156101000203166002900480601f0160208091040260200160405190810160405280929190818152602001828054600181600116156101000203166002900480156109215780601f106108f657610100808354040283529160200191610921565b820191906000526020600020905b81548152906001019060200180831161090457829003601f168201915b50505050509050919050565b60606001826040518082805190602001908083835b6020831015156109675780518252602082019150602081019050602083039250610942565b6001836020036101000a03801982511681845116808217855250505050505090500191505090815260200160405180910390206000018054600181600116156101000203166002900480601f016020809104026020016040519081016040528092919081815260200182805460018160011615610100020316600290048015610a315780601f10610a0657610100808354040283529160200191610a31565b820191906000526020600020905b815481529060010190602001808311610a1457829003601f168201915b50505050509050919050565b60606001826040518082805190602001908083835b602083101515610a775780518252602082019150602081019050602083039250610a52565b6001836020036101000a03801982511681845116808217855250505050505090500191505090815260200160405180910390206001018054600181600116156101000203166002900480601f016020809104026020016040519081016040528092919081815260200182805460018160011615610100020316600290048015610b415780601f10610b1657610100808354040283529160200191610b41565b820191906000526020600020905b815481529060010190602001808311610b2457829003601f168201915b50505050509050919050565b60008080549050905090565b828054600181600116156101000203166002900490600052602060002090601f016020900481019282601f10610b9a57805160ff1916838001178555610bc8565b82800160010185558215610bc8579182015b82811115610bc7578251825591602001919060010190610bac565b5b509050610bd59190610bd9565b5090565b610bfb91905b80821115610bf7576000816000905550600101610bdf565b5090565b905600a165627a7a72305820006c28e36b2f39b9d91203d618025dc00cb81f3dc0ab1027ce1e6fc0a0f6ad190029",
  "source": "pragma solidity ^0.4.24;\n\n// IATI Organisations\n// Steve Huckle\n\nimport \"Organisations.sol\";\nimport \"Strings.sol\";\n\ncontract IATIOrganisations is Organisations {\n\n  struct Organisation {\n    string name;\n    string orgType;\n  }\n\n  string[] orgReferences;\n  mapping(string => Organisation) private organisations;\n\n  event OrganisationSet(string _reference, string _name, string _type);\n\n  constructor() public {\n  }\n\n  function setOrganisation(string _reference, string _name, string _type) public {\n    organisations[_reference].name = _name;\n    organisations[_reference].orgType = _type;\n    orgReferences.push(_reference);\n    emit OrganisationSet(_reference, _name, _type);\n  }\n\n  function getOrganisationExists(string _reference) public constant returns (bool) {\n    uint256 index = Strings.getIndex(_reference, orgReferences);\n    return index != orgReferences.length;\n  }\n\n  function getNumOrganisations() public constant returns (uint256) {\n    return orgReferences.length;\n  }\n\n  function getOrganisationReference(uint256 _index) public constant returns (string) {\n    return orgReferences[_index];\n  }\n\n  function getOrganisationName(string _reference) public constant returns (string) {\n    return organisations[_reference].name;\n  }\n\n  function getOrganisationType(string _reference) public constant returns (string) {\n    return organisations[_reference].orgType;\n  }\n}\n",
  "sourcePath": "/Users/steve/gitrepos/ReportAid/app/src/blockchain/contracts/IATIOrganisations.sol",
  "compiler": {
    "name": "solc",
    "version": "0.4.24+commit.e67f0147.Emscripten.clang"
  },
  "schemaVersion": "2.0.0",
  "updatedAt": "2018-11-02T17:23:58.397Z"
}