{
  "contractName": "IATIOrganisations",
  "abi": [
    {
      "inputs": [],
      "payable": false,
      "stateMutability": "nonpayable",
      "type": "constructor"
    },
    {
      "anonymous": false,
      "inputs": [
        {
          "indexed": false,
          "name": "_reference",
          "type": "string"
        },
        {
          "indexed": false,
          "name": "_name",
          "type": "string"
        },
        {
          "indexed": false,
          "name": "_type",
          "type": "string"
        }
      ],
      "name": "SetOrganisation",
      "type": "event"
    },
    {
      "constant": false,
      "inputs": [
        {
          "name": "_reference",
          "type": "string"
        },
        {
          "name": "_name",
          "type": "string"
        },
        {
          "name": "_type",
          "type": "string"
        }
      ],
      "name": "setOrganisation",
      "outputs": [],
      "payable": false,
      "stateMutability": "nonpayable",
      "type": "function"
    },
    {
      "constant": true,
      "inputs": [
        {
          "name": "_reference",
          "type": "string"
        }
      ],
      "name": "getOrganisationExists",
      "outputs": [
        {
          "name": "",
          "type": "bool"
        }
      ],
      "payable": false,
      "stateMutability": "view",
      "type": "function"
    },
    {
      "constant": true,
      "inputs": [],
      "name": "getNumOrganisations",
      "outputs": [
        {
          "name": "",
          "type": "uint256"
        }
      ],
      "payable": false,
      "stateMutability": "view",
      "type": "function"
    },
    {
      "constant": true,
      "inputs": [
        {
          "name": "_index",
          "type": "uint256"
        }
      ],
      "name": "getOrganisationReference",
      "outputs": [
        {
          "name": "",
          "type": "string"
        }
      ],
      "payable": false,
      "stateMutability": "view",
      "type": "function"
    },
    {
      "constant": true,
      "inputs": [
        {
          "name": "_reference",
          "type": "string"
        }
      ],
      "name": "getOrganisationName",
      "outputs": [
        {
          "name": "",
          "type": "string"
        }
      ],
      "payable": false,
      "stateMutability": "view",
      "type": "function"
    },
    {
      "constant": true,
      "inputs": [
        {
          "name": "_reference",
          "type": "string"
        }
      ],
      "name": "getOrganisationType",
      "outputs": [
        {
          "name": "",
          "type": "string"
        }
      ],
      "payable": false,
      "stateMutability": "view",
      "type": "function"
    }
  ],
  "bytecode": "0x608060405234801561001057600080fd5b50610c97806100206000396000f300608060405260043610610078576000357c0100000000000000000000000000000000000000000000000000000000900463ffffffff1680632619c8c71461007d578063598eddb4146101725780638173dfc6146101f3578063cf03328714610299578063dd5d006a1461037b578063f8ef9e4b1461045d575b600080fd5b34801561008957600080fd5b50610170600480360381019080803590602001908201803590602001908080601f0160208091040260200160405190810160405280939291908181526020018383808284378201915050505050509192919290803590602001908201803590602001908080601f0160208091040260200160405190810160405280939291908181526020018383808284378201915050505050509192919290803590602001908201803590602001908080601f0160208091040260200160405190810160405280939291908181526020018383808284378201915050505050509192919290505050610488565b005b34801561017e57600080fd5b506101d9600480360381019080803590602001908201803590602001908080601f0160208091040260200160405190810160405280939291908181526020018383808284378201915050505050509192919290505050610772565b604051808215151515815260200191505060405180910390f35b3480156101ff57600080fd5b5061021e600480360381019080803590602001909291905050506108ac565b6040518080602001828103825283818151815260200191508051906020019080838360005b8381101561025e578082015181840152602081019050610243565b50505050905090810190601f16801561028b5780820380516001836020036101000a031916815260200191505b509250505060405180910390f35b3480156102a557600080fd5b50610300600480360381019080803590602001908201803590602001908080601f016020809104026020016040519081016040528093929190818152602001838380828437820191505050505050919291929050505061097a565b6040518080602001828103825283818151815260200191508051906020019080838360005b83811015610340578082015181840152602081019050610325565b50505050905090810190601f16801561036d5780820380516001836020036101000a031916815260200191505b509250505060405180910390f35b34801561038757600080fd5b506103e2600480360381019080803590602001908201803590602001908080601f0160208091040260200160405190810160405280939291908181526020018383808284378201915050505050509192919290505050610a9a565b6040518080602001828103825283818151815260200191508051906020019080838360005b83811015610422578082015181840152602081019050610407565b50505050905090810190601f16801561044f5780820380516001836020036101000a031916815260200191505b509250505060405180910390f35b34801561046957600080fd5b50610472610bba565b6040518082815260200191505060405180910390f35b6000835111801561049a575060008251115b80156104a7575060008151115b15156104b257600080fd5b816001846040518082805190602001908083835b6020831015156104eb57805182526020820191506020810190506020830392506104c6565b6001836020036101000a03801982511681845116808217855250505050505090500191505090815260200160405180910390206000019080519060200190610534929190610bc6565b50806001846040518082805190602001908083835b60208310151561056e5780518252602082019150602081019050602083039250610549565b6001836020036101000a038019825116818451168082178552505050505050905001915050908152602001604051809103902060010190805190602001906105b7929190610bc6565b5060008390806001815401808255809150509060018203906000526020600020016000909192909190915090805190602001906105f5929190610bc6565b50507ff5770bdd2b8df87ba3bc47e11756de37bc5fb831feea9627eb34210eb7aa3ade83838360405180806020018060200180602001848103845287818151815260200191508051906020019080838360005b83811015610663578082015181840152602081019050610648565b50505050905090810190601f1680156106905780820380516001836020036101000a031916815260200191505b50848103835286818151815260200191508051906020019080838360005b838110156106c95780820151818401526020810190506106ae565b50505050905090810190601f1680156106f65780820380516001836020036101000a031916815260200191505b50848103825285818151815260200191508051906020019080838360005b8381101561072f578082015181840152602081019050610714565b50505050905090810190601f16801561075c5780820380516001836020036101000a031916815260200191505b50965050505050505060405180910390a1505050565b6000806000835111151561078557600080fd5b73__Strings_______________________________63e11809c58460006040518363ffffffff167c01000000000000000000000000000000000000000000000000000000000281526004018080602001838152602001828103825284818151815260200191508051906020019080838360005b838110156108135780820151818401526020810190506107f8565b50505050905090810190601f1680156108405780820380516001836020036101000a031916815260200191505b50935050505060206040518083038186803b15801561085e57600080fd5b505af4158015610872573d6000803e3d6000fd5b505050506040513d602081101561088857600080fd5b81019080805190602001909291905050509050600080549050811415915050919050565b6060600080549050821015156108c157600080fd5b6000828154811015156108d057fe5b906000526020600020018054600181600116156101000203166002900480601f01602080910402602001604051908101604052809291908181526020018280546001816001161561010002031660029004801561096e5780601f106109435761010080835404028352916020019161096e565b820191906000526020600020905b81548152906001019060200180831161095157829003601f168201915b50505050509050919050565b60606000825111151561098c57600080fd5b6001826040518082805190602001908083835b6020831015156109c4578051825260208201915060208101905060208303925061099f565b6001836020036101000a03801982511681845116808217855250505050505090500191505090815260200160405180910390206000018054600181600116156101000203166002900480601f016020809104026020016040519081016040528092919081815260200182805460018160011615610100020316600290048015610a8e5780601f10610a6357610100808354040283529160200191610a8e565b820191906000526020600020905b815481529060010190602001808311610a7157829003601f168201915b50505050509050919050565b606060008251111515610aac57600080fd5b6001826040518082805190602001908083835b602083101515610ae45780518252602082019150602081019050602083039250610abf565b6001836020036101000a03801982511681845116808217855250505050505090500191505090815260200160405180910390206001018054600181600116156101000203166002900480601f016020809104026020016040519081016040528092919081815260200182805460018160011615610100020316600290048015610bae5780601f10610b8357610100808354040283529160200191610bae565b820191906000526020600020905b815481529060010190602001808311610b9157829003601f168201915b50505050509050919050565b60008080549050905090565b828054600181600116156101000203166002900490600052602060002090601f016020900481019282601f10610c0757805160ff1916838001178555610c35565b82800160010185558215610c35579182015b82811115610c34578251825591602001919060010190610c19565b5b509050610c429190610c46565b5090565b610c6891905b80821115610c64576000816000905550600101610c4c565b5090565b905600a165627a7a72305820b76ec11f04b38682947dbf7e520109c361eab3cea902b65de85ff10c1844fe650029",
  "source": "pragma solidity ^0.4.24;\n\n// IATI Organisations\n// Steve Huckle\n\nimport \"./Organisations.sol\";\nimport \"./Strings.sol\";\n\ncontract IATIOrganisations is Organisations {\n\n  struct Organisation {\n    string name;\n    string orgType;\n  }\n\n  string[] orgReferences;\n  mapping(string => Organisation) private organisations;\n\n  event SetOrganisation(string _reference, string _name, string _type);\n\n  constructor() public {\n  }\n\n  function setOrganisation(string _reference, string _name, string _type) public {\n    require((bytes(_reference).length > 0) && (bytes(_name).length > 0) && (bytes(_type).length > 0));\n    organisations[_reference].name = _name;\n    organisations[_reference].orgType = _type;\n    orgReferences.push(_reference);\n    emit SetOrganisation(_reference, _name, _type);\n  }\n\n  function getOrganisationExists(string _reference) public constant returns (bool) {\n    require(bytes(_reference).length > 0);\n    uint256 index = Strings.getIndex(_reference, orgReferences);\n    return index != orgReferences.length;\n  }\n\n  function getNumOrganisations() public constant returns (uint256) {\n    return orgReferences.length;\n  }\n\n  function getOrganisationReference(uint256 _index) public constant returns (string) {\n    require(_index < orgReferences.length);\n    return orgReferences[_index];\n  }\n\n  function getOrganisationName(string _reference) public constant returns (string) {\n    require(bytes(_reference).length > 0);\n    return organisations[_reference].name;\n  }\n\n  function getOrganisationType(string _reference) public constant returns (string) {\n    require(bytes(_reference).length > 0);\n    return organisations[_reference].orgType;\n  }\n}\n",
  "sourcePath": "/Users/steve/gitrepos/ReportAid/app/src/blockchain/contracts/IATIOrganisations.sol",
  "compiler": {
    "name": "solc",
    "version": "0.4.24+commit.e67f0147.Emscripten.clang"
  },
  "schemaVersion": "2.0.0",
  "updatedAt": "2018-11-27T16:05:51.285Z"
}